{
  "contractName": "HireyStore",
  "abi": [
    {
      "inputs": [],
      "payable": false,
      "stateMutability": "nonpayable",
      "type": "constructor"
    },
    {
      "constant": true,
      "inputs": [],
      "name": "contractCreatorAddress",
      "outputs": [
        {
          "internalType": "address payable",
          "name": "",
          "type": "address"
        }
      ],
      "payable": false,
      "stateMutability": "view",
      "type": "function"
    },
    {
      "constant": false,
      "inputs": [
        {
          "internalType": "address",
          "name": "_applicantAccount",
          "type": "address"
        },
        {
          "internalType": "string",
          "name": "_cvRecordHash",
          "type": "string"
        }
      ],
      "name": "storeCvRecordFor",
      "outputs": [],
      "payable": false,
      "stateMutability": "nonpayable",
      "type": "function"
    },
    {
      "constant": false,
      "inputs": [
        {
          "internalType": "address",
          "name": "_targetAccount",
          "type": "address"
        },
        {
          "internalType": "string",
          "name": "_cvDocumentHash",
          "type": "string"
        }
      ],
      "name": "storeCVDocumentFor",
      "outputs": [],
      "payable": false,
      "stateMutability": "nonpayable",
      "type": "function"
    },
    {
      "constant": false,
      "inputs": [
        {
          "internalType": "uint256",
          "name": "cvDocumentIndex",
          "type": "uint256"
        }
      ],
      "name": "unlockCVDocument",
      "outputs": [],
      "payable": true,
      "stateMutability": "payable",
      "type": "function"
    },
    {
      "constant": true,
      "inputs": [],
      "name": "getNbrOfCvRecordHashes",
      "outputs": [
        {
          "internalType": "uint256",
          "name": "",
          "type": "uint256"
        }
      ],
      "payable": false,
      "stateMutability": "view",
      "type": "function"
    },
    {
      "constant": true,
      "inputs": [
        {
          "internalType": "uint256",
          "name": "cvRecordIndex",
          "type": "uint256"
        }
      ],
      "name": "getCvRecordHash",
      "outputs": [
        {
          "internalType": "address",
          "name": "",
          "type": "address"
        },
        {
          "internalType": "string",
          "name": "",
          "type": "string"
        }
      ],
      "payable": false,
      "stateMutability": "view",
      "type": "function"
    },
    {
      "constant": true,
      "inputs": [],
      "name": "getNbrOfCvDocumentHashes",
      "outputs": [
        {
          "internalType": "uint256",
          "name": "",
          "type": "uint256"
        }
      ],
      "payable": false,
      "stateMutability": "view",
      "type": "function"
    },
    {
      "constant": true,
      "inputs": [
        {
          "internalType": "uint256",
          "name": "cvDocumentIndex",
          "type": "uint256"
        }
      ],
      "name": "getCvDocumentHash",
      "outputs": [
        {
          "internalType": "address",
          "name": "",
          "type": "address"
        },
        {
          "internalType": "string",
          "name": "",
          "type": "string"
        }
      ],
      "payable": false,
      "stateMutability": "view",
      "type": "function"
    }
  ],
  "bytecode": "0x608060405234801561001057600080fd5b50336000806101000a81548173ffffffffffffffffffffffffffffffffffffffff021916908373ffffffffffffffffffffffffffffffffffffffff160217905550610fed806100606000396000f3fe60806040526004361061007b5760003560e01c806342ed45321161004e57806342ed4532146102d157806354db9de9146103b9578063810982e8146103e7578063ab1be73c146104ce5761007b565b8063038187e51461008057806309bdf31314610168578063191f0070146101bf578063200445e0146102a6575b600080fd5b34801561008c57600080fd5b50610166600480360360408110156100a357600080fd5b81019080803573ffffffffffffffffffffffffffffffffffffffff169060200190929190803590602001906401000000008111156100e057600080fd5b8201836020820111156100f257600080fd5b8035906020019184600183028401116401000000008311171561011457600080fd5b91908080601f016020809104026020016040519081016040528093929190818152602001838380828437600081840152601f19601f8201169050808301925050505050505091929192905050506104f9565b005b34801561017457600080fd5b5061017d61067f565b604051808273ffffffffffffffffffffffffffffffffffffffff1673ffffffffffffffffffffffffffffffffffffffff16815260200191505060405180910390f35b3480156101cb57600080fd5b506101f8600480360360208110156101e257600080fd5b81019080803590602001909291905050506106a4565b604051808373ffffffffffffffffffffffffffffffffffffffff1673ffffffffffffffffffffffffffffffffffffffff16815260200180602001828103825283818151815260200191508051906020019080838360005b8381101561026a57808201518184015260208101905061024f565b50505050905090810190601f1680156102975780820380516001836020036101000a031916815260200191505b50935050505060405180910390f35b3480156102b257600080fd5b506102bb610896565b6040518082815260200191505060405180910390f35b3480156102dd57600080fd5b506103b7600480360360408110156102f457600080fd5b81019080803573ffffffffffffffffffffffffffffffffffffffff1690602001909291908035906020019064010000000081111561033157600080fd5b82018360208201111561034357600080fd5b8035906020019184600183028401116401000000008311171561036557600080fd5b91908080601f016020809104026020016040519081016040528093929190818152602001838380828437600081840152601f19601f8201169050808301925050505050505091929192905050506108dd565b005b6103e5600480360360208110156103cf57600080fd5b8101908080359060200190929190505050610beb565b005b3480156103f357600080fd5b506104206004803603602081101561040a57600080fd5b8101908080359060200190929190505050610d4c565b604051808373ffffffffffffffffffffffffffffffffffffffff1673ffffffffffffffffffffffffffffffffffffffff16815260200180602001828103825283818151815260200191508051906020019080838360005b83811015610492578082015181840152602081019050610477565b50505050905090810190601f1680156104bf5780820380516001836020036101000a031916815260200191505b50935050505060405180910390f35b3480156104da57600080fd5b506104e3610ecc565b6040518082815260200191505060405180910390f35b600160008373ffffffffffffffffffffffffffffffffffffffff1673ffffffffffffffffffffffffffffffffffffffff16815260200190815260200160002060405180604001604052803373ffffffffffffffffffffffffffffffffffffffff168152602001838152509080600181540180825580915050906001820390600052602060002090600202016000909192909190915060008201518160000160006101000a81548173ffffffffffffffffffffffffffffffffffffffff021916908373ffffffffffffffffffffffffffffffffffffffff16021790555060208201518160010190805190602001906105f1929190610f13565b505050506001600260008473ffffffffffffffffffffffffffffffffffffffff1673ffffffffffffffffffffffffffffffffffffffff1681526020019081526020016000205401600260008473ffffffffffffffffffffffffffffffffffffffff1673ffffffffffffffffffffffffffffffffffffffff168152602001908152602001600020819055505050565b6000809054906101000a900473ffffffffffffffffffffffffffffffffffffffff1681565b60006060600360003373ffffffffffffffffffffffffffffffffffffffff1673ffffffffffffffffffffffffffffffffffffffff16815260200190815260200160002083815481106106f257fe5b906000526020600020906003020160020160009054906101000a900460ff1661071a57600080fd5b600360003373ffffffffffffffffffffffffffffffffffffffff1673ffffffffffffffffffffffffffffffffffffffff168152602001908152602001600020838154811061076457fe5b906000526020600020906003020160000160009054906101000a900473ffffffffffffffffffffffffffffffffffffffff16600360003373ffffffffffffffffffffffffffffffffffffffff1673ffffffffffffffffffffffffffffffffffffffff16815260200190815260200160002084815481106107e057fe5b9060005260206000209060030201600101808054600181600116156101000203166002900480601f0160208091040260200160405190810160405280929190818152602001828054600181600116156101000203166002900480156108865780601f1061085b57610100808354040283529160200191610886565b820191906000526020600020905b81548152906001019060200180831161086957829003601f168201915b5050505050905091509150915091565b6000600460003373ffffffffffffffffffffffffffffffffffffffff1673ffffffffffffffffffffffffffffffffffffffff16815260200190815260200160002054905090565b3373ffffffffffffffffffffffffffffffffffffffff168273ffffffffffffffffffffffffffffffffffffffff161415610a3b57600360008373ffffffffffffffffffffffffffffffffffffffff1673ffffffffffffffffffffffffffffffffffffffff16815260200190815260200160002060405180606001604052803373ffffffffffffffffffffffffffffffffffffffff168152602001838152602001600115158152509080600181540180825580915050906001820390600052602060002090600302016000909192909190915060008201518160000160006101000a81548173ffffffffffffffffffffffffffffffffffffffff021916908373ffffffffffffffffffffffffffffffffffffffff1602179055506020820151816001019080519060200190610a12929190610f13565b5060408201518160020160006101000a81548160ff021916908315150217905550505050610b61565b600360008373ffffffffffffffffffffffffffffffffffffffff1673ffffffffffffffffffffffffffffffffffffffff16815260200190815260200160002060405180606001604052803373ffffffffffffffffffffffffffffffffffffffff168152602001838152602001600015158152509080600181540180825580915050906001820390600052602060002090600302016000909192909190915060008201518160000160006101000a81548173ffffffffffffffffffffffffffffffffffffffff021916908373ffffffffffffffffffffffffffffffffffffffff1602179055506020820151816001019080519060200190610b3c929190610f13565b5060408201518160020160006101000a81548160ff0219169083151502179055505050505b6001600460008473ffffffffffffffffffffffffffffffffffffffff1673ffffffffffffffffffffffffffffffffffffffff1681526020019081526020016000205401600460008473ffffffffffffffffffffffffffffffffffffffff1673ffffffffffffffffffffffffffffffffffffffff168152602001908152602001600020819055505050565b600360003373ffffffffffffffffffffffffffffffffffffffff1673ffffffffffffffffffffffffffffffffffffffff1681526020019081526020016000208181548110610c3557fe5b906000526020600020906003020160020160009054906101000a900460ff1615610c5e57600080fd5b617530341015610c6d57600080fd5b6000809054906101000a900473ffffffffffffffffffffffffffffffffffffffff1673ffffffffffffffffffffffffffffffffffffffff166108fc349081150290604051600060405180830381858888f19350505050158015610cd4573d6000803e3d6000fd5b506001600360003373ffffffffffffffffffffffffffffffffffffffff1673ffffffffffffffffffffffffffffffffffffffff1681526020019081526020016000208281548110610d2157fe5b906000526020600020906003020160020160006101000a81548160ff02191690831515021790555050565b60006060600160003373ffffffffffffffffffffffffffffffffffffffff1673ffffffffffffffffffffffffffffffffffffffff1681526020019081526020016000208381548110610d9a57fe5b906000526020600020906002020160000160009054906101000a900473ffffffffffffffffffffffffffffffffffffffff16600160003373ffffffffffffffffffffffffffffffffffffffff1673ffffffffffffffffffffffffffffffffffffffff1681526020019081526020016000208481548110610e1657fe5b9060005260206000209060020201600101808054600181600116156101000203166002900480601f016020809104026020016040519081016040528092919081815260200182805460018160011615610100020316600290048015610ebc5780601f10610e9157610100808354040283529160200191610ebc565b820191906000526020600020905b815481529060010190602001808311610e9f57829003601f168201915b5050505050905091509150915091565b6000600260003373ffffffffffffffffffffffffffffffffffffffff1673ffffffffffffffffffffffffffffffffffffffff16815260200190815260200160002054905090565b828054600181600116156101000203166002900490600052602060002090601f016020900481019282601f10610f5457805160ff1916838001178555610f82565b82800160010185558215610f82579182015b82811115610f81578251825591602001919060010190610f66565b5b509050610f8f9190610f93565b5090565b610fb591905b80821115610fb1576000816000905550600101610f99565b5090565b9056fea265627a7a7231582090dc7a6965ae9346276195508b13728310b264ee3e1ee0b6617c605b67c5ac9f64736f6c63430005100032",
  "source": "// SPDX-License-Identifier: MIT\n\npragma solidity >=0.4.22 <0.8.0;\n\ncontract HireyStore {\n    \n  struct CVRecord {\n    address author;\n    string documentHash;\n  }\n\n  struct CVDocument {\n    address author;\n    string documentHash;\n    bool isUnlocked;\n  }\n\n  address payable public contractCreatorAddress;\n  mapping(address => CVRecord[]) cvRecordHashes;\n  mapping(address => uint) nbrOfCvRecordHashes;\n  mapping(address => CVDocument[]) cvDocumentHashes;\n  mapping(address => uint) nbrOfCvDocumentHashes;\n\n  constructor() public {\n    contractCreatorAddress = msg.sender;\n  }\n\n  // Bildungsinstitution oder Arbeitgeber kann einen Document-Hash für einen Bewerber hinzufügen\n  function storeCvRecordFor(address _applicantAccount, string memory _cvRecordHash) public {\n    cvRecordHashes[_applicantAccount].push(CVRecord({author: msg.sender, documentHash: _cvRecordHash}));\n    nbrOfCvRecordHashes[_applicantAccount] = nbrOfCvRecordHashes[_applicantAccount] + 1;\n  }\n\n  // Bewerber kann seinen CV-Hash für sich selber speicher (targetAccount == msg.sender)\n  // Bewerber kann seinen CV-Hash für eine HR-Abteilung speichern. Die HR-Abteilung muss den Eintrag dann mit Eth freischalten (unlock=True).\n  function storeCVDocumentFor(address _targetAccount, string memory _cvDocumentHash) public {\n    if(_targetAccount == msg.sender) {\n      cvDocumentHashes[_targetAccount].push(CVDocument({author: msg.sender, documentHash: _cvDocumentHash, isUnlocked: true}));\n    } else {\n      cvDocumentHashes[_targetAccount].push(CVDocument({author: msg.sender, documentHash: _cvDocumentHash, isUnlocked: false}));\n    }\n    nbrOfCvDocumentHashes[_targetAccount] = nbrOfCvDocumentHashes[_targetAccount] + 1;\n  }\n\n  // CV-Hashes welche für eine HR-Abteilung hinzugefügt wurden müssen zuerst freigeschaltet werden. Gemäss unserem Konzept kostet das die HR-Abteilung aber etwas. \n  function unlockCVDocument(uint cvDocumentIndex) public payable {\n    require(!cvDocumentHashes[msg.sender][cvDocumentIndex].isUnlocked);\n    require(msg.value >= 30000);\n    contractCreatorAddress.transfer(msg.value);\n    cvDocumentHashes[msg.sender][cvDocumentIndex].isUnlocked = true;\n  }\n\n  function getNbrOfCvRecordHashes() public view returns (uint) {\n    return nbrOfCvRecordHashes[msg.sender];\n  }\n\n  function getCvRecordHash(uint cvRecordIndex) public view returns (address, string memory) {\n    return (cvRecordHashes[msg.sender][cvRecordIndex].author, cvRecordHashes[msg.sender][cvRecordIndex].documentHash);\n  }\n  \n  function getNbrOfCvDocumentHashes() public view returns (uint) {\n    return nbrOfCvDocumentHashes[msg.sender];\n  }\n  \n  function getCvDocumentHash(uint cvDocumentIndex) public view returns (address, string memory) {\n    require(cvDocumentHashes[msg.sender][cvDocumentIndex].isUnlocked);\n    return (cvDocumentHashes[msg.sender][cvDocumentIndex].author, cvDocumentHashes[msg.sender][cvDocumentIndex].documentHash);\n  }\n}",
  "sourcePath": "C:/Users/matth/Documents/BCHAIN/Hirey/contracts/HireyStore.sol",
  "compiler": {
    "name": "solc",
    "version": "0.5.16+commit.9c3226ce.Emscripten.clang"
  },
  "schemaVersion": "3.3.1",
  "updatedAt": "2020-11-11T18:07:24.948Z",
  "devdoc": {
    "methods": {}
  },
  "userdoc": {
    "methods": {}
  }
}