{
  "contractName": "HireyStore",
  "abi": [
    {
      "inputs": [],
      "payable": false,
      "stateMutability": "nonpayable",
      "type": "constructor"
    },
    {
      "constant": true,
      "inputs": [],
      "name": "contractCreatorAddress",
      "outputs": [
        {
          "internalType": "address payable",
          "name": "",
          "type": "address"
        }
      ],
      "payable": false,
      "stateMutability": "view",
      "type": "function"
    },
    {
      "constant": false,
      "inputs": [
        {
          "internalType": "address",
          "name": "_applicantAccount",
          "type": "address"
        },
        {
          "internalType": "string",
          "name": "_cvRecordHash",
          "type": "string"
        }
      ],
      "name": "storeCvRecordFor",
      "outputs": [],
      "payable": false,
      "stateMutability": "nonpayable",
      "type": "function"
    },
    {
      "constant": false,
      "inputs": [
        {
          "internalType": "string",
          "name": "_cvDocumentHash",
          "type": "string"
        }
      ],
      "name": "storeCVDocument",
      "outputs": [],
      "payable": false,
      "stateMutability": "nonpayable",
      "type": "function"
    },
    {
      "constant": false,
      "inputs": [
        {
          "internalType": "address",
          "name": "_targetAccount",
          "type": "address"
        },
        {
          "internalType": "uint256",
          "name": "cvDocumentIndex",
          "type": "uint256"
        },
        {
          "internalType": "string",
          "name": "_cvDocumentHash",
          "type": "string"
        }
      ],
      "name": "shareCVDocument",
      "outputs": [],
      "payable": false,
      "stateMutability": "nonpayable",
      "type": "function"
    },
    {
      "constant": false,
      "inputs": [
        {
          "internalType": "uint256",
          "name": "cvDocumentIndex",
          "type": "uint256"
        }
      ],
      "name": "unlockCVDocument",
      "outputs": [],
      "payable": true,
      "stateMutability": "payable",
      "type": "function"
    },
    {
      "constant": true,
      "inputs": [],
      "name": "getNbrOfCvRecordHashes",
      "outputs": [
        {
          "internalType": "uint256",
          "name": "",
          "type": "uint256"
        }
      ],
      "payable": false,
      "stateMutability": "view",
      "type": "function"
    },
    {
      "constant": true,
      "inputs": [
        {
          "internalType": "uint256",
          "name": "cvRecordIndex",
          "type": "uint256"
        }
      ],
      "name": "getCvRecordHash",
      "outputs": [
        {
          "internalType": "address",
          "name": "",
          "type": "address"
        },
        {
          "internalType": "string",
          "name": "",
          "type": "string"
        }
      ],
      "payable": false,
      "stateMutability": "view",
      "type": "function"
    },
    {
      "constant": true,
      "inputs": [],
      "name": "getNbrOfCvDocumentHashes",
      "outputs": [
        {
          "internalType": "uint256",
          "name": "",
          "type": "uint256"
        }
      ],
      "payable": false,
      "stateMutability": "view",
      "type": "function"
    },
    {
      "constant": true,
      "inputs": [
        {
          "internalType": "uint256",
          "name": "cvDocumentIndex",
          "type": "uint256"
        }
      ],
      "name": "getCvDocumentHash",
      "outputs": [
        {
          "internalType": "address",
          "name": "",
          "type": "address"
        },
        {
          "internalType": "string",
          "name": "",
          "type": "string"
        }
      ],
      "payable": false,
      "stateMutability": "view",
      "type": "function"
    },
    {
      "constant": true,
      "inputs": [
        {
          "internalType": "uint256",
          "name": "cvDocumentIndex",
          "type": "uint256"
        }
      ],
      "name": "isCvDocumentUnlocked",
      "outputs": [
        {
          "internalType": "bool",
          "name": "",
          "type": "bool"
        }
      ],
      "payable": false,
      "stateMutability": "view",
      "type": "function"
    },
    {
      "constant": true,
      "inputs": [
        {
          "internalType": "uint256",
          "name": "cvDocumentIndex",
          "type": "uint256"
        }
      ],
      "name": "getNbrOfSharedTo",
      "outputs": [
        {
          "internalType": "uint256",
          "name": "",
          "type": "uint256"
        }
      ],
      "payable": false,
      "stateMutability": "view",
      "type": "function"
    },
    {
      "constant": true,
      "inputs": [
        {
          "internalType": "uint256",
          "name": "cvDocumentIndex",
          "type": "uint256"
        },
        {
          "internalType": "uint256",
          "name": "sharedToIndex",
          "type": "uint256"
        }
      ],
      "name": "getSharedTo",
      "outputs": [
        {
          "internalType": "address",
          "name": "",
          "type": "address"
        }
      ],
      "payable": false,
      "stateMutability": "view",
      "type": "function"
    }
  ],
  "bytecode": "0x608060405234801561001057600080fd5b50336000806101000a81548173ffffffffffffffffffffffffffffffffffffffff021916908373ffffffffffffffffffffffffffffffffffffffff160217905550611553806100606000396000f3fe6080604052600436106100a75760003560e01c8063265d61bb11610064578063265d61bb14610414578063274b8af71461049957806354db9de91461058b578063810982e8146105b9578063ab1be73c146106a0578063f8d3484e146106cb576100a7565b8063036fe469146100ac578063038187e51461017457806309bdf3131461025c578063191f0070146102b35780631a8ca48b1461039a578063200445e0146103e9575b600080fd5b3480156100b857600080fd5b50610172600480360360208110156100cf57600080fd5b81019080803590602001906401000000008111156100ec57600080fd5b8201836020820111156100fe57600080fd5b8035906020019184600183028401116401000000008311171561012057600080fd5b91908080601f016020809104026020016040519081016040528093929190818152602001838380828437600081840152601f19601f82011690508083019250505050505050919291929050505061071e565b005b34801561018057600080fd5b5061025a6004803603604081101561019757600080fd5b81019080803573ffffffffffffffffffffffffffffffffffffffff169060200190929190803590602001906401000000008111156101d457600080fd5b8201836020820111156101e657600080fd5b8035906020019184600183028401116401000000008311171561020857600080fd5b91908080601f016020809104026020016040519081016040528093929190818152602001838380828437600081840152601f19601f8201169050808301925050505050505091929192905050506108cc565b005b34801561026857600080fd5b50610271610a52565b604051808273ffffffffffffffffffffffffffffffffffffffff1673ffffffffffffffffffffffffffffffffffffffff16815260200191505060405180910390f35b3480156102bf57600080fd5b506102ec600480360360208110156102d657600080fd5b8101908080359060200190929190505050610a77565b604051808373ffffffffffffffffffffffffffffffffffffffff1673ffffffffffffffffffffffffffffffffffffffff16815260200180602001828103825283818151815260200191508051906020019080838360005b8381101561035e578082015181840152602081019050610343565b50505050905090810190601f16801561038b5780820380516001836020036101000a031916815260200191505b50935050505060405180910390f35b3480156103a657600080fd5b506103d3600480360360208110156103bd57600080fd5b8101908080359060200190929190505050610c69565b6040518082815260200191505060405180910390f35b3480156103f557600080fd5b506103fe610cc3565b6040518082815260200191505060405180910390f35b34801561042057600080fd5b506104576004803603604081101561043757600080fd5b810190808035906020019092919080359060200190929190505050610d0a565b604051808273ffffffffffffffffffffffffffffffffffffffff1673ffffffffffffffffffffffffffffffffffffffff16815260200191505060405180910390f35b3480156104a557600080fd5b50610589600480360360608110156104bc57600080fd5b81019080803573ffffffffffffffffffffffffffffffffffffffff169060200190929190803590602001909291908035906020019064010000000081111561050357600080fd5b82018360208201111561051557600080fd5b8035906020019184600183028401116401000000008311171561053757600080fd5b91908080601f016020809104026020016040519081016040528093929190818152602001838380828437600081840152601f19601f820116905080830192505050505050509192919290505050610d9a565b005b6105b7600480360360208110156105a157600080fd5b81019080803590602001909291905050506110df565b005b3480156105c557600080fd5b506105f2600480360360208110156105dc57600080fd5b8101908080359060200190929190505050611240565b604051808373ffffffffffffffffffffffffffffffffffffffff1673ffffffffffffffffffffffffffffffffffffffff16815260200180602001828103825283818151815260200191508051906020019080838360005b83811015610664578082015181840152602081019050610649565b50505050905090810190601f1680156106915780820380516001836020036101000a031916815260200191505b50935050505060405180910390f35b3480156106ac57600080fd5b506106b56113c0565b6040518082815260200191505060405180910390f35b3480156106d757600080fd5b50610704600480360360208110156106ee57600080fd5b8101908080359060200190929190505050611407565b604051808215151515815260200191505060405180910390f35b600360003373ffffffffffffffffffffffffffffffffffffffff1673ffffffffffffffffffffffffffffffffffffffff16815260200190815260200160002060405180606001604052803373ffffffffffffffffffffffffffffffffffffffff168152602001838152602001600115158152509080600181540180825580915050906001820390600052602060002090600302016000909192909190915060008201518160000160006101000a81548173ffffffffffffffffffffffffffffffffffffffff021916908373ffffffffffffffffffffffffffffffffffffffff160217905550602082015181600101908051906020019061081f929190611479565b5060408201518160020160006101000a81548160ff0219169083151502179055505050506001600460003373ffffffffffffffffffffffffffffffffffffffff1673ffffffffffffffffffffffffffffffffffffffff1681526020019081526020016000205401600460003373ffffffffffffffffffffffffffffffffffffffff1673ffffffffffffffffffffffffffffffffffffffff1681526020019081526020016000208190555050565b600160008373ffffffffffffffffffffffffffffffffffffffff1673ffffffffffffffffffffffffffffffffffffffff16815260200190815260200160002060405180604001604052803373ffffffffffffffffffffffffffffffffffffffff168152602001838152509080600181540180825580915050906001820390600052602060002090600202016000909192909190915060008201518160000160006101000a81548173ffffffffffffffffffffffffffffffffffffffff021916908373ffffffffffffffffffffffffffffffffffffffff16021790555060208201518160010190805190602001906109c4929190611479565b505050506001600260008473ffffffffffffffffffffffffffffffffffffffff1673ffffffffffffffffffffffffffffffffffffffff1681526020019081526020016000205401600260008473ffffffffffffffffffffffffffffffffffffffff1673ffffffffffffffffffffffffffffffffffffffff168152602001908152602001600020819055505050565b6000809054906101000a900473ffffffffffffffffffffffffffffffffffffffff1681565b60006060600360003373ffffffffffffffffffffffffffffffffffffffff1673ffffffffffffffffffffffffffffffffffffffff1681526020019081526020016000208381548110610ac557fe5b906000526020600020906003020160020160009054906101000a900460ff16610aed57600080fd5b600360003373ffffffffffffffffffffffffffffffffffffffff1673ffffffffffffffffffffffffffffffffffffffff1681526020019081526020016000208381548110610b3757fe5b906000526020600020906003020160000160009054906101000a900473ffffffffffffffffffffffffffffffffffffffff16600360003373ffffffffffffffffffffffffffffffffffffffff1673ffffffffffffffffffffffffffffffffffffffff1681526020019081526020016000208481548110610bb357fe5b9060005260206000209060030201600101808054600181600116156101000203166002900480601f016020809104026020016040519081016040528092919081815260200182805460018160011615610100020316600290048015610c595780601f10610c2e57610100808354040283529160200191610c59565b820191906000526020600020905b815481529060010190602001808311610c3c57829003601f168201915b5050505050905091509150915091565b6000600660003373ffffffffffffffffffffffffffffffffffffffff1673ffffffffffffffffffffffffffffffffffffffff1681526020019081526020016000206000838152602001908152602001600020549050919050565b6000600460003373ffffffffffffffffffffffffffffffffffffffff1673ffffffffffffffffffffffffffffffffffffffff16815260200190815260200160002054905090565b6000600560003373ffffffffffffffffffffffffffffffffffffffff1673ffffffffffffffffffffffffffffffffffffffff16815260200190815260200160002060008481526020019081526020016000208281548110610d6757fe5b9060005260206000200160009054906101000a900473ffffffffffffffffffffffffffffffffffffffff16905092915050565b3373ffffffffffffffffffffffffffffffffffffffff168373ffffffffffffffffffffffffffffffffffffffff161415610dd357600080fd5b600360008473ffffffffffffffffffffffffffffffffffffffff1673ffffffffffffffffffffffffffffffffffffffff16815260200190815260200160002060405180606001604052803373ffffffffffffffffffffffffffffffffffffffff168152602001838152602001600015158152509080600181540180825580915050906001820390600052602060002090600302016000909192909190915060008201518160000160006101000a81548173ffffffffffffffffffffffffffffffffffffffff021916908373ffffffffffffffffffffffffffffffffffffffff1602179055506020820151816001019080519060200190610ed4929190611479565b5060408201518160020160006101000a81548160ff021916908315150217905550505050600560003373ffffffffffffffffffffffffffffffffffffffff1673ffffffffffffffffffffffffffffffffffffffff16815260200190815260200160002060008381526020019081526020016000208390806001815401808255809150509060018203906000526020600020016000909192909190916101000a81548173ffffffffffffffffffffffffffffffffffffffff021916908373ffffffffffffffffffffffffffffffffffffffff160217905550506001600660003373ffffffffffffffffffffffffffffffffffffffff1673ffffffffffffffffffffffffffffffffffffffff16815260200190815260200160002060008481526020019081526020016000205401600660003373ffffffffffffffffffffffffffffffffffffffff1673ffffffffffffffffffffffffffffffffffffffff1681526020019081526020016000206000848152602001908152602001600020819055506001600460008573ffffffffffffffffffffffffffffffffffffffff1673ffffffffffffffffffffffffffffffffffffffff1681526020019081526020016000205401600460008573ffffffffffffffffffffffffffffffffffffffff1673ffffffffffffffffffffffffffffffffffffffff16815260200190815260200160002081905550505050565b600360003373ffffffffffffffffffffffffffffffffffffffff1673ffffffffffffffffffffffffffffffffffffffff168152602001908152602001600020818154811061112957fe5b906000526020600020906003020160020160009054906101000a900460ff161561115257600080fd5b61753034101561116157600080fd5b6000809054906101000a900473ffffffffffffffffffffffffffffffffffffffff1673ffffffffffffffffffffffffffffffffffffffff166108fc349081150290604051600060405180830381858888f193505050501580156111c8573d6000803e3d6000fd5b506001600360003373ffffffffffffffffffffffffffffffffffffffff1673ffffffffffffffffffffffffffffffffffffffff168152602001908152602001600020828154811061121557fe5b906000526020600020906003020160020160006101000a81548160ff02191690831515021790555050565b60006060600160003373ffffffffffffffffffffffffffffffffffffffff1673ffffffffffffffffffffffffffffffffffffffff168152602001908152602001600020838154811061128e57fe5b906000526020600020906002020160000160009054906101000a900473ffffffffffffffffffffffffffffffffffffffff16600160003373ffffffffffffffffffffffffffffffffffffffff1673ffffffffffffffffffffffffffffffffffffffff168152602001908152602001600020848154811061130a57fe5b9060005260206000209060020201600101808054600181600116156101000203166002900480601f0160208091040260200160405190810160405280929190818152602001828054600181600116156101000203166002900480156113b05780601f10611385576101008083540402835291602001916113b0565b820191906000526020600020905b81548152906001019060200180831161139357829003601f168201915b5050505050905091509150915091565b6000600260003373ffffffffffffffffffffffffffffffffffffffff1673ffffffffffffffffffffffffffffffffffffffff16815260200190815260200160002054905090565b6000600360003373ffffffffffffffffffffffffffffffffffffffff1673ffffffffffffffffffffffffffffffffffffffff168152602001908152602001600020828154811061145357fe5b906000526020600020906003020160020160009054906101000a900460ff169050919050565b828054600181600116156101000203166002900490600052602060002090601f016020900481019282601f106114ba57805160ff19168380011785556114e8565b828001600101855582156114e8579182015b828111156114e75782518255916020019190600101906114cc565b5b5090506114f591906114f9565b5090565b61151b91905b808211156115175760008160009055506001016114ff565b5090565b9056fea265627a7a723158204b4d07d36dfef51c8d0b8741568267541d5523c2b0994be991434e6533cdd7a664736f6c63430005100032",
  "source": "// SPDX-License-Identifier: MIT\n\npragma solidity >=0.4.22 <0.8.0;\n\ncontract HireyStore {\n    \n  struct CVRecord {\n    address author;\n    string documentHash;\n  }\n\n  struct CVDocument {\n    address author;\n    string documentHash;\n    bool isUnlocked;\n  }\n\n  address payable public contractCreatorAddress;\n  mapping(address => CVRecord[]) cvRecordHashes;\n  mapping(address => uint) nbrOfCvRecordHashes;\n  mapping(address => CVDocument[]) cvDocumentHashes;\n  mapping(address => uint) nbrOfCvDocumentHashes;\n  mapping(address => mapping(uint => address[])) sharedTo;\n  mapping(address => mapping(uint => uint)) nbrOfSharedTo;\n\n  constructor() public {\n    contractCreatorAddress = msg.sender;\n  }\n\n  // Bildungsinstitution oder Arbeitgeber kann einen Document-Hash für einen Bewerber hinzufügen\n  function storeCvRecordFor(address _applicantAccount, string memory _cvRecordHash) public {\n    cvRecordHashes[_applicantAccount].push(CVRecord({author: msg.sender, documentHash: _cvRecordHash}));\n    nbrOfCvRecordHashes[_applicantAccount] = nbrOfCvRecordHashes[_applicantAccount] + 1;\n  }\n\n  // Bewerber kann seinen CVDocument-Hash für sich selber speicher\n  function storeCVDocument(string memory _cvDocumentHash) public {\n    cvDocumentHashes[msg.sender].push(CVDocument({author: msg.sender, documentHash: _cvDocumentHash, isUnlocked: true}));\n    nbrOfCvDocumentHashes[msg.sender] = nbrOfCvDocumentHashes[msg.sender] + 1;\n  }\n\n  // Bewerber kann seinen CV-Hash für eine HR-Abteilung speichern. Die HR-Abteilung muss den Eintrag dann mit Eth freischalten (unlock=True).\n  // Beim Teilen gibt er den neuen cvDocumentHash und den index des alten Documentes mit. \n  function shareCVDocument(address _targetAccount, uint cvDocumentIndex, string memory _cvDocumentHash) public {\n    require(_targetAccount != msg.sender);\n    cvDocumentHashes[_targetAccount].push(CVDocument({author: msg.sender, documentHash: _cvDocumentHash, isUnlocked: false}));\n    sharedTo[msg.sender][cvDocumentIndex].push(_targetAccount);\n    nbrOfSharedTo[msg.sender][cvDocumentIndex] = nbrOfSharedTo[msg.sender][cvDocumentIndex] + 1;\n    nbrOfCvDocumentHashes[_targetAccount] = nbrOfCvDocumentHashes[_targetAccount] + 1;\n  }\n\n  // CV-Hashes welche für eine HR-Abteilung hinzugefügt wurden müssen zuerst freigeschaltet werden. Gemäss unserem Konzept kostet das die HR-Abteilung aber etwas. \n  function unlockCVDocument(uint cvDocumentIndex) public payable {\n    require(!cvDocumentHashes[msg.sender][cvDocumentIndex].isUnlocked);\n    require(msg.value >= 30000);\n    contractCreatorAddress.transfer(msg.value);\n    cvDocumentHashes[msg.sender][cvDocumentIndex].isUnlocked = true;\n  }\n\n  function getNbrOfCvRecordHashes() public view returns (uint) {\n    return nbrOfCvRecordHashes[msg.sender];\n  }\n\n  function getCvRecordHash(uint cvRecordIndex) public view returns (address, string memory) {\n    return (cvRecordHashes[msg.sender][cvRecordIndex].author, cvRecordHashes[msg.sender][cvRecordIndex].documentHash);\n  }\n  \n  function getNbrOfCvDocumentHashes() public view returns (uint) {\n    return nbrOfCvDocumentHashes[msg.sender];\n  }\n  \n  function getCvDocumentHash(uint cvDocumentIndex) public view returns (address, string memory) {\n    require(cvDocumentHashes[msg.sender][cvDocumentIndex].isUnlocked);\n    return (cvDocumentHashes[msg.sender][cvDocumentIndex].author, cvDocumentHashes[msg.sender][cvDocumentIndex].documentHash);\n  }\n\n  function isCvDocumentUnlocked(uint cvDocumentIndex) public view returns (bool) {\n    return cvDocumentHashes[msg.sender][cvDocumentIndex].isUnlocked;\n  }\n\n  function getNbrOfSharedTo(uint cvDocumentIndex) public view returns (uint) {\n    return nbrOfSharedTo[msg.sender][cvDocumentIndex];\n  }\n\n  function getSharedTo(uint cvDocumentIndex, uint sharedToIndex) public view returns (address) {\n    return sharedTo[msg.sender][cvDocumentIndex][sharedToIndex];\n  }\n}",
  "sourcePath": "C:/Users/matth/Documents/BCHAIN/Hirey/contracts/HireyStore.sol",
  "compiler": {
    "name": "solc",
    "version": "0.5.16+commit.9c3226ce.Emscripten.clang"
  },
  "schemaVersion": "3.3.1",
  "updatedAt": "2020-11-27T12:56:57.945Z",
  "devdoc": {
    "methods": {}
  },
  "userdoc": {
    "methods": {}
  }
}